:1000000000650020B92E0000056500008D2E00005F
:100010008D2E00008D2E00008D2E000000000000AF
:10002000000000000000000000000000F1290000B6
:100030008D2E0000000000008D2E00008D2E00008F
:100040006D2A00006D2A00006D2A00006D2A000054
:100050006D2A00006D2A00006D2A00006D2A000044
:100060006D2A00006D2A00006D2A00006D2A000034
:100070006D2A00006D2A00006D2A00006D2A000024
:100080006D2A00006D2A00006D2A00006D2A000014
:100090006D2A00006D2A00006D2A00006D2A000004
:1000A0006D2A00006D2A00006D2A00006D2A0000F4
:1000B0006D2A00006D2A00006D2A00006D2A0000E4
:1000C0006D2A00006D2A00006D2A00006D2A0000D4
:0C00D0006D2A00006D2A00006D2A00005F
:1000DC0053B94AB9002908BF00281CBF4FF0FF31A3
:1000EC004FF0FF3000F00CB8ADF1080C6DE904CE08
:1000FC0000F008F8DDF804E0DDE9022304B07047F5
:10010C00704700BF2DE9F04786468C460846089E8E
:10011C00154674461946002B40F0C2808542B2FA4F
:10012C0082F245D94AB1C2F1200300FA02FC2EFA40
:10013C0003F3954043EA0C0C94404FEA154EA8B2D9
:10014C00BCFBFEF8230C0EFB18CC08FB00F943EAB1
:10015C000C43994528D9EB1808F1FF3704D299457F
:10016C0002D9A8F102072B44A3EB0903A4B2B3FBF9
:10017C00FEFC0EFB1C330CFB00F044EA0344A042D3
:10018C0014D92C190CF1FF3304D2A04202D9ACF1D2
:10019C0002032C44241A43EA07401EB1D440002326
:1001AC0034607360BDE8F0874746DDE76346F1E7EE
:1001BC0092BB431B01214FEA154EAFB2B3FBFEFCC1
:1001CC00200C0EFB1C330CFB07F840EA034398454C
:1001DC0062D9EB180CF1FF3004D2984502D9ACF17E
:1001EC0002002B44A3EB0803A4B2B3FBFEFC0EFBF2
:1001FC001C330CFB07F744EA0344A7424ED92C19D5
:10020C000CF1FF3304D2A74202D9ACF102032C4407
:10021C00E41B43EA0040C0E7C2F1200320FA03F1DB
:10022C00954090402EFA03F303434FEA154EAFB2BC
:10023C00B1FBFEFC0EFB1C10190C0CFB07F841EA81
:10024C000041884504FA02F422D969180CF1FF30F8
:10025C0004D2884502D9ACF102002944A1EB080173
:10026C009BB2B1FBFEFC0EFB1C110CFB07F743EA27
:10027C0001439F420ED9EB180CF1FF3104D29F427F
:10028C0002D9ACF102012B44DB1B41EA004192E79D
:10029C006046E3E76146F7E76046A3E76346B7E7E6
:1002AC00834206D916B9002108467BE7C6E900E06F
:1002BC00F9E7B3FA83F78FB9834201D3724508D8B3
:1002CC00BEEB020460EB030301209C461EB9002127
:1002DC0068E73846FAE7C6E9004CF8E7C7F1200CA6
:1002EC00BB4022FA0CF41C432EFA0CF120FA0CF34E
:1002FC00B84001434FEA14490EFA07F5B3FBF9F87D
:10030C001FFA84FE09FB18300B0C08FB0EFA43EAAB
:10031C0000439A4502FA07F240D9E31808F1FF307E
:10032C0004D29A4502D9A8F102002344A3EB0A0394
:10033C0089B2B3FBF9F809FB183308FB0EFE41EA4E
:10034C0003418E452CD9611808F1FF3304D28E4538
:10035C0002D9A8F10203214443EA0040A0FB029811
:10036C00A1EB0E014145CE46434602D306D14D4585
:10037C0004D2B9EB020E68EB04030138002EA6D0B0
:10038C00B5EB0E0261EB030101FA0CFC22FA07F348
:10039C004CEA0303F940C6E9003198E74046C5E74B
:1003AC004346D9E708B50B4808F000F928B9BDE871
:1003BC0008400948452105F069BD08484FF4003153
:1003CC0005F0E4F9BDE8084002480022022105F0DE
:1003DC00CDB900BF44860000308B0000408800007F
:1003EC007FB53C4B3C4AC3F800263C48C3F8042676
:1003FC004921C3F80826C3F80C26C3F81026C3F805
:10040C001426C3F81826C3F81C2605F03FFDFFF789
:10041C00C9FF00F097F8324C204608F0C7F828B313
:10042C0030484FF4803105F0B1F92569A36801A972
:10043C005B682046984720B92A68019B53405A06AE
:10044C0014D54FF08043D3F800340BB1DB070DD536
:10045C0001222348022105F089F92348492105F09E
:10046C0015FD01F033FD214802F09CF801A800F0C5
:10047C00CDFC1F4B1B68834204D01E48452105F060
:10048C0005FDFEE7039A1C48492105F0FFFC1B48BB
:10049C00492105F0FBFC69469DF8080000F032F894
:1004AC00009B039C1C44019B1D8900F063FF661993
:1004BC004FF02002EFF3118382F31288BFF36F8F9A
:1004CC00635983F30888736898470D48452105F0F4
:1004DC00DDFCFEE7000001403546526E678B0000E4
:1004EC004486000038880000808B0000488800009B
:1004FC0070010020A48B0000C78B0000F68B00005D
:10050C001B8C000008B5024638B105480023452174
:10051C0005F0BCFC6FF0150008BD0860FCE700BFDF
:10052C003E8C00001FB50C46014601AA044806F09B
:10053C005CF918B9019B2360029B636004B010BD89
:10054C007486000002484FF4C05103F05DBF00BF39
:10055C00FA1200202DE9F04FF9B0DDE98448DFF8FC
:10056C00E0A138A8DAF8006017461D4607F022FF14
:10057C00002138A804F066F83CB1B8F1000F04DD96
:10058C004246214638A807F019FF7B89B7F8088046
:10059C009844FB684FF000099844C84521D80DA930
:1005AC0038A807F044FF869B23B120220DA91846DA
:1005BC0005F0D7FF002300932A464FF6FF73394608
:1005CC0007A805F003F9044638B928460C9F00F03B
:1005DC00DDF987421BD94FF0FF34204679B0BDE8D6
:1005EC00F08F839B829AA8EB090B9B4528BF9B46F7
:1005FC005B464946284605F057FC04460028ECD1DA
:10060C0082995A4638A807F0D9FED944C5E7DFF8D5
:10061C0034914FF0FF370DF1160305AA06A907A870
:10062C0005F022F9B0F10008C0F288807BD1BDF84A
:10063C0016B0BBF1100F18D1BDF81440202CCAD144
:10064C000699234638AA284605F02EFC8046002839
:10065C0074D1224638A90DA805F052F904463A4B3C
:10066C001B688342B9D10124D5E7BBF1010F37D107
:10067C00BDF81430202BAED8069938AA284605F0C0
:10068C0013FC8046002859D19DF814B0BBF1200F03
:10069C0003D94FF0FF384746BDE7D9F800302B4F50
:1006AC000393039B9845F4DA1DA807F083FE002101
:1006BC001DA803F0C7FF7A6857F8081B12681DA81D
:1006CC0007F07CFE15A91DA807F0B1FE5A4638A903
:1006DC0015A805F01FFF0028DDD008F10108E0E7A0
:1006EC00BBF1200F97D17B1C95D0D9F80030BB42C1
:1006FC0016DDBDF81430B3F5807F7FF46CAF06992E
:10070C0038AA284605F0D0FB8046B8B9FFB2BDF830
:10071C001430009738AA59460DA800F019F806466F
:10072C004FF0FF3777E73CB1074B1B68B34218BF5C
:10073C00DAF80060344650E74FF0010844464CE7C5
:10074C000000002050880000700100205488000038
:10075C002DE9F04F1F46ADF54B7D6A4B9DF850636C
:10076C001D68804627A88A46914607F0E0FD664B37
:10077C0053F83640029403EBC6038AAA5B681B68E5
:10078C001C442146302302A806F064FB68BB029B84
:10079C008A9A13449C4228D129AA214602A806F021
:1007AC006DFB10BB0DF1B00B5A46214602A806F0AA
:1007BC0065FB0646C8B929A806F081FE029B289065
:1007CC009C4212D1CDE9006B3346324629A927A8A9
:1007DC0007F06AFD48B927A803F0C6FE28B929A876
:1007EC0006F06DFE874228900AD027A807F0A9FDD5
:1007FC0027A807F0A6FD28460DF54B7DBDE8F08F28
:10080C00B7F5807F02D04FF0FF35F1E7BAF1200F3A
:10081C00F9D18AAA494627A803F0CCFE0446002841
:10082C00F1D19DF82733BC2BEDD152AF0390DF26CD
:10083C003D460CA807F0BEFD00210CA803F002FFFA
:10084C0020220DF207310CA807F0B8FD042203A9F1
:10085C000CA807F0B3FD04A90CA807F0E8FD202EA6
:10086C009DF80F30B146A8BF4FF020090133384630
:10087C004A4604A9A6EB09068DF80F3005F071FE67
:10088C00002E4F44D5DC2F468AAB2946002208782F
:10089C0013F8016B01327040DF2A01F8010BF6D11D
:1008AC002B7803F07F032B7017F8016B002EAAD165
:1008BC000134BE2CF8D195F8BE30012BA3D10CA875
:1008CC0007F078FD31460CA803F0BCFE0F49082256
:1008DC000CA807F073FD414620220CA807F06EFD12
:1008EC0020220DF207210CA807F068FD04A90CA822
:1008FC0007F09DFD20220DF2073104A805F000F849
:10090C00054682E70000002054880000648C00003B
:10091C002DE9F04186B00123DFF86C80ADF8003092
:10092C000D466F46002617F8010B01A901F0C8F916
:10093C000446A0B901988168102302AA103905F069
:10094C00B3FA0446019805F0AEFA44B910224146B8
:10095C0002A805F0DFFD40B12EB14FF0FF34204668
:10096C0006B0BDE8F0810126DDE7019806F079F9C3
:10097C000423A0F108012A46019805F095FA0446D3
:10098C00019805F090FAEAE7208B000007B504F017
:10099C00C7FF6946FFF7C6FD38B10548452105F08C
:1009AC0075FA002003B05DF804FB0098FAE700BF6D
:1009BC006C8C00002DE9F041354B88B006460020C8
:1009CC000C461D6804F0F7FE06A9C0B201F078F9D8
:1009DC00002857D1214604F0EEFE2C2507A9C0B201
:1009EC0005FB046501F06CF9002833D02C27674314
:1009FC0006EB0708069BD8F8101011F0100138D13F
:100A0C004FF480720192234A0092CDE903112A46D9
:100A1C0002910846FFF79EFD05461F4BF2590698BA
:100A2C009A420CD1D8F80C20B8F808309B1806D292
:100A3C008268934203D2194B1B68AB421FD02CB374
:100A4C008268002105F05AFA154A1648452105F02E
:100A5C001DFA13E0079805F06CFA0746079805F0A5
:100A6C0022FA6B1EEA1C13F8011FB942BED1934245
:100A7C00F9D11CB10699304605F036F801250698D7
:100A8C0005F011FA284608B0BDE8F081064ADCE70B
:100A9C0000000020FA2A00203DB8F39670010020D7
:100AAC00AF8C0000B98C0000A78C000073B50D460C
:100ABC00044600212846CDE9001104F0D4FF30B3E0
:100ACC00164E2368B34203D101AA204604F060FFFE
:100ADC00E36AB34204D16A460121204604F058FF70
:100AEC00DDE90032934288BF0193019BAB60019A10
:100AFC002946204600F034FB094B1A68002A03DD16
:100B0C000848572105F0C2F9002002B070BD05F16C
:100B1C000801FFF7FDFEAB680193E8E73DB8F396DB
:100B2C00D40D0020E18C00002DE9F84FDFF870B0F7
:100B3C001C4C1D4D884691469A4600260B9B9E42A6
:100B4C0001D300200FE00B9B154A9F1BB7F5806F5C
:100B5C0028BF4FF480673B4606EB0A01404605F080
:100B6C00A3F910B10120BDE8F88F0A993B465A460B
:100B7C007118484605F0ADF90028F3D1C4F80056B9
:100B8C003E44C4F80456C4F80856C4F80C56C4F8CD
:100B9C001056C4F81456C4F81856C4F81C56CDE7B1
:100BAC0074090020000001403546526E2DE9FF41CA
:100BBC008F4B43620E468F4B03650021044608465B
:100BCC0004F0F9FD04F12001C0B201F079F8012123
:100BDC00002004F0F0FD04F14C01C0B201F070F8FB
:100BEC000546204604F015FF074668B90022114659
:100BFC00204604F0B7FE074600B37F480022572179
:100C0C0005F044F901238FE07C488022572105F040
:100C1C003DF901239F4284F85830E7D194F85830BD
:100C2C008DF80730042B00F28280012B00F28580B6
:100C3C0000F09C80FF2384F8583097E0204600F0A9
:100C4C00A7F90028DED0684604F004FF6946204668
:100C5C0004F09FFF18B16A483A465721D0E768461E
:100C6C0004F001FF80F001016A46C9B2204604F08D
:100C7C0079FE02460028C0D1684604F0F4FE07460F
:100C8C0060BB69462046FFF711FF9DF8073084F8DA
:100C9C005830033B012B06D8384604F0C9FF10B17D
:100CAC00FF2384F858309DF80730023B022B0BD8F9
:100CBC00002004F0ABFF38B1FF2384F858305148C2
:100CCC00452105F0E3F8FEE794F85830FF2BF6D0F9
:100CDC006A460021204604F045FE93E79DF8078004
:100CEC00B8F1010F15D1104603F0BEF9831E022B8B
:100CFC0007460BD841462046FFF75CFE424B1B686B
:100D0C00984203D0012814BF0527012784F8587096
:100D1C0084E701212046FFF74DFE3B4B1B689842B0
:100D2C000CBF9DF80730052384F8583076E7052B67
:100D3C0080D1002004F07CFF13E069462046FFF7C9
:100D4C00B5FE94F85830DA1E012A05460CD800205E
:100D5C0004F06EFF054600287FF46CAF002004F011
:100D6C0055FF054610B165E7022BF7D094F85830C3
:100D7C00FF2B04D12348452105F088F8FEE7012B11
:100D8C0010D06A460021204604F0ECFD054648B11F
:100D9C00E06C05F088F8206A05F085F8284604B068
:100DAC00BDE8F08100212046FFF704FE0746DFF87E
:100DBC005880D8F8003098420FD110220021684694
:100DCC0005F0DAFB206A04F0FFFC3071236A5B68E3
:100DDC003460D8F80050B360DAE7E06C05F063F8E3
:100DEC00206A05F060F8002D08BF3D46D6E700BF2D
:100DFC007405002074010020528D0000108D00003D
:100E0C007E8D0000A88D00007001002038B5064DC5
:100E1C00044660220021284605F0AEFB21462846F8
:100E2C00FFF7C4FE38BD00BF740D002073B5164625
:100E3C001D4643B15B79012B07D121B9204B2A68A0
:100E4C001B689A4217D8002418E0022BFBD12B68A0
:100E5C00012B07D91A4A12689342F4D8B1FA81F1DE
:100E6C004909F0E7EFD131B10129ECD129790239E7
:100E7C0018BF0121E7E7436A5C680021002004F0F9
:100E8C009AFC01A9C0B200F01BFF30B101240198FB
:100E9C0005F009F8204602B070BD214601982023C8
:100EAC00324605F001F804460028EFD1002DEED0B3
:100EBC003468044BE41A18BF4FF0FF34E7E700BF67
:100ECC00040000203DB8F3962DE9F04F074685B09D
:100EDC000C4601460020164604F019FD051E50DB99
:100EEC003846E46D04F01CFD5FFA84F96B1E09FBB7
:100EFC0003084FF0000A4FF0010B4FF0FF349DB97F
:100F0C00BAF1010F03DD2148452104F0BFFF631C3A
:100F1C0006D07F2C2ADC013440F201133460B380FC
:100F2C00284605B0BDE8F08F6B1E00930DF10F0243
:100F3C0001234146384604F0B7FF031E019322DB20
:100F4C0001220DF10F01384605F09FFE019B40B1C7
:100F5C005B4501D00AF1010A009DA8EB09089B46EC
:100F6C00CDE7B4F1FF3F08BF2C46F5E70223803CE8
:100F7C007371631004F00104013301343360347174
:100F8C00CEE70725CCE70125CAE700BFB48D0000EA
:100F9C0038B5816A426D914208D0531C8B4205D002
:100FAC001348572104F072FF002038BD80291CD94A
:100FBC0010485721F6E7446A056D04EBC30405EBB2
:100FCC00C30564686D68AC4202D00B485721E9E751
:100FDC0001339A42EFD1914205D9436A03EBC20324
:100FEC005B68A342F1D10120DFE700231C46F0E748
:100FFC00D78D00000F8E00003E8E000000B589B02A
:10100C0004A9012005F0B3FE9DF81020012A41D05F
:10101C00254B2649032A08BF0B469DF81320029244
:10102C009DF8122001929DF811202148009249212F
:10103C00204A04F02BFF06A9022005F098FE9DF82B
:10104C001820012A28D0184B1849032A08BF0B4630
:10105C009DF81B2002929DF81A2001929DF81920F0
:10106C0000921348144A492104F010FF9DF81030E7
:10107C00012B13D19DF81230032B0FD19DF8183092
:10108C00012B0BD00D48492104F000FF022009B0C0
:10109C005DF804FB0A4BC0E7094BD9E70948492125
:1010AC0004F0F4FE0020F2E76A8E0000738E00005C
:1010BC00878E0000798E0000C88E0000D88E00004C
:1010CC006E8E0000F78E000070B54B6814461E4AF9
:1010DC0003F0FF23934286B006460D462FD10B68D2
:1010EC00012B2CD104A9204602F068FF9DF810209A
:1010FC00012A26D0154B1649032A08BF0B469DF82A
:10110C00132002929DF8122001929DF8112000925A
:10111C001048114A492104F0B9FE9DF81030032BF8
:10112C000DD12146304604F0DFFC204605F012FEBE
:10113C00A968204604F007FC204602F01FFF06B009
:10114C0070BD064BDBE700BF000100046A8E000097
:10115C00738E0000878E0000C88E00006E8E00001B
:10116C002DE9F04F054689B07D480C4649211746BC
:10117C0004F08CFE6B6A01225E6800233344BB4290
:10118C00114602F10102F9D3764F2046396004F082
:10119C006AFC08B3E86D04F0B5FBAB6A03F1FF38E9
:1011AC0000233344834202D208F1FF38F9E73B684D
:1011BC00434511D36C48572104F068FE3A686B48DC
:1011CC0008FB06F302FB0662572104F05FFE0123C5
:1011DC00E37109B0BDE8F08F06A9012000F070FDA5
:1011EC0007A9022000F06CFD079A21462846FFF75C
:1011FC006BFF6379012B0BD1D7F80080DFF870B14E
:10120C003B68DDF81890B8F1000F11D10123236071
:10121C00022363714FF001083B68DDF818A0984574
:10122C0049D9504604F03FFE079804F03CFED0E745
:10123C00226801339B1A98453AD86B6A196853F89F
:10124C00380003EBC803012A53F8083CA3EB010355
:10125C00A0EB010A049311D1079B0393E368022BC3
:10126C0008D04946284604F03FFC22464946284609
:10127C0004F070FC0399284604F036FC32465146C3
:10128C00484604F02FFC049B4A464946CDE900A68B
:10129C002846FFF749FC2146284604F0F1FB236859
:1012AC000133236020B1DBF800300133CBF8003080
:1012BC0008F1FF38A4E7236898454ED36A6ADDF835
:1012CC001CB052F8381004914FEAC803083B11685F
:1012DC000391D1582A6DD0581368A0EB03092379D8
:1012EC00012B38D1039B3246C91A5046059104F0A4
:1012FC00F9FB059900914B465246594601962846F2
:10130C00FFF712FC2146284604F0BAFB0223237196
:10131C0018B1174A136801331360324649465846D0
:10132C0004F0E0FBDDE9032351469B1ACDE900965E
:10133C005A462846FFF7F8FB2146284604F0A0FB46
:10134C002368013323600123237130B1084A1368E9
:10135C000133136001E0022BDFD008F101085BE7D9
:10136C000E8F000004000020378F0000668F0000F5
:10137C00D40D0020134A4FF0FF3301215160C2F805
:10138C004833C2F8083302F5C0425160C2F8483302
:10139C00C2F8083302F598325160C2F84833C2F8EB
:1013AC000833A2F508320021C2F80015C2F8083340
:1013BC0002F5E832C2F808354FF08042C2F8083323
:1013CC00704700BF00B000402DE9F043079D15B9F0
:1013DC001560002012E00324B5FBF4F404EB440781
:1013EC00BD4218BF0134B4F1804F09D2A4000134BE
:1013FC008C4200D838B914606FF00B00BDE8F08354
:10140C004FF0FF34F7E7DFF8BCE004460021B942A7
:10141C0003F1030C04F104062CD3A942274624D271
:10142C001F7801F1010CAC45264938BF5B784FEAB7
:10143C00A70E28BF002311F80EE084F800E0AC459D
:10144C0001EB131E3CBF9B0003F03C034FEA071754
:10145C0007F0300738BFCB5C1EF80770677028BFE9
:10146C003D23A3703D23E3703746381A00231060E8
:10147C003B70AEE71CF8034C1CF8023C1CF8018CCA
:10148C004FEAA40924011EF8099006F8049C04F004
:10149C0030040EEB13199B0019F8044006F8034CAA
:1014AC0003F03C030EEB981408F03F08E35C06F8DD
:1014BC00023C1EF8083006F8013C03313446634602
:1014CC00A5E700BF259100002DE9F043DDF81CE0F5
:1014DC00DFF82C8100273C463D4675451FD3E4BB05
:1014EC0014600020BDE8F0830136764533D013F844
:1014FC0006C0BCF1200FF7D0AEEB0609B9F1010F15
:10150C00A6EB05050DD0BCF10D0F0AD103EB0609B6
:10151C0099F80190B9F10A0F6ED1751CDDE72E46D2
:10152C00E3E7BCF10A0FF8D02DB9BCF13D0F05D1A2
:10153C000137022F0DD96FF01500D3E71CF0800F87
:10154C00F9D118F80C507F2DF5D03F2D01D8002F74
:10155C00F1D10134E1E73546C1E704F007064FF05D
:10156C00060CE4080CFB06F60CFB04F40736E41B33
:10157C0004EBD60470B18C420CD80027DFF880E065
:10158C00DFF880801D44014603263C469D4205D170
:10159C000C1AA5E714606FF00B00A3E713F8019B7E
:1015AC00A9F10A0C5FFA8CFCBCF1160F04D848FAAE
:1015BC000CFC1CF0010FE9D01EF809C00134BCF181
:1015CC00400F08BF013E0CF03F0C042C4CEA87176F
:1015DC00DCD17EB13C0C012E0C7002D10131002407
:1015EC00D4E7022E4FEA17244C7016BF8F700231CD
:1015FC000331F4E73446C9E7002DA2D09BE700BFC6
:10160C00A5900000F6FFBFFF014B1B68184700BFF9
:10161C000800002007B50B46002102460091034844
:10162C0000F014F903B05DF804FB00BF15160000C0
:10163C002DE9F047058B04462807904611D4022962
:10164C0005F0070540F0CD80204604F045FB78B14D
:10165C000138218B042811D8DFE800F0C3106D8508
:10166C00950001290CBF45F0100545F02005258398
:10167C0088F31188BFF36F8FBDE8F08701F0070A7C
:10168C00AA4500F0A6800027B9463E46A368002B69
:10169C0000F0BD8041F00801218388F31188BFF36D
:1016AC006F8FA168002900F0BB800D68002900F045
:1016BC00B780D1F80480334652462046C047002DEF
:1016CC0076D02B6829461D46F0E701F007035A1F18
:1016DC00012A1BD8002221F00701062B276889B2AA
:1016EC00C4E9002209D13B4603E0628B01326283DC
:1016FC001B68002BF9D141F002012183204604F034
:10170C00EBFA00287BD041F0200177E0042B0AD1C2
:10171C0021F0070189B22183204604F0DDFA10B1D3
:10172C0041F020012183218B01F0070AAA4550D0FA
:10173C000027B946AAE7236921F0070141F0060109
:10174C00062DD3F8009021832DD1B9F1000F40D094
:10175C0041F00801218388F31188BFF36F8F3A4958
:10176C002046C84729E021F00701236941F0040114
:10177C0089B2042DD3F804902183E6D000273E468D
:10178C004FF0040A82E721F00701236941F00501BB
:10179C0089B2052DD3F808902183D6D000273E4678
:1017AC004FF0050A72E700273E464FF0060A6DE738
:1017BC002B4687E7B9F1000FD1D14FF02003EFF39F
:1017CC00118883F31288BFF36F8F238B23F00803E8
:1017DC002383258BEA062ED525F01003238305F0F1
:1017EC0007056669218B002EBFF66FAF00232768B3
:1017FC00C4E9003321F0070141F001012183218B61
:10180C0001F0070AAA454FF000097FF43FAF002F03
:10181C009BD041F00801218388F31188BFF36F8FAF
:10182C00002FC7D03D68394633465246204604F057
:10183C007FFA2F46F4E7AB067FF51AAF25F02003AD
:10184C00238305F00705FFE6695D00002DE9F04FE5
:10185C008DB01D46531E8246019103934FF0000933
:10186C00039B5878252803F1010419D11E4600204A
:10187C004FF0FF3802360346029044463178039607
:10188C00392954D81F2914D8002900F0F081019966
:10189C002520D04701993078D04709F10209DFE7BC
:1018AC00002800F0E4810199D04709F10109039463
:1018BC00D6E7A1F12002192AE9D801A757F822F09E
:1018CC00351900009B1800009B180000351900000A
:1018DC009B180000B51900009B1800009B18000015
:1018EC009B1800009B180000011A0000351900001D
:1018FC009B180000151A0000C11900009B1800006D
:10190C00CF190000EF190000EF190000EF190000CB
:10191C00EF190000EF190000EF190000EF1900009B
:10192C00EF190000EF19000008460136A6E7582908
:10193C0000F0EE80A1F16302D7B2172FA7D8172AB7
:10194C00A5D801A757F822F0C31B00003B1A0000D2
:10195C009B1800009B1800009B1800001B1A00002D
:10196C003B1A00009B1800009B1800001B1A00007B
:10197C009B1800009B1800009B180000F71A000031
:10198C009B1800009B180000971B00009B18000080
:10199C003B1A00009B1800009B180000F71A00006F
:1019AC009B1800001B1A000001992520D04709F153
:1019BC00010955E7029A02F0FE0202924FF000086C
:1019CC00B3E7002C0DDAB8F1000F0DDA029A002AF9
:1019DC0000F0458124EAE4740A2202FB0414303C32
:1019EC00A3E7B8F1000FF5DB0A2202FB0812A2F103
:1019FC0030089AE7B8F1000F55F8042B80F23181CA
:101A0C00002A80F230815442022202928DE768292A
:101A1C0003D1682B06D1482387E76C2902D16C2BA4
:101A2C0000F02381002B7FF432AF0B467DE77A2B3D
:101A3C0006D1752955F8046B14D14FF0000B0CE04E
:101A4C006C2BF6D04C2BF4D1073525F007037529F8
:101A5C00D3E9006B03F1080506D120283ED1864F4F
:101A6C00013C09E04FEAE67BBBF1000FF5DA764268
:101A7C00824F6BEB4B0B013C0DF12D0305930023B7
:101A8C000493304659460A220023FEF721FB049B9F
:101A9C0003F1FF3CCDF810C0DDF814C030320CF867
:101AAC00012DCDF814C0B4465A46BCF10A0F72F1A0
:101ABC00000206468B46E4D2C3F1010B30330DEB2A
:101ACC000306B8F1000FA6F104066DDA029BD907E4
:101ADC007CD4A8EB0B03A4EB0B0413E02B280ABF5C
:101AEC00674F684F04F1FF34C6E770290FD155F8E2
:101AFC00042B0023FAB9644E053C6FF004034FF03D
:101B0C00050B604F029A92076FD4A04665E07821CE
:101B1C006C2B03D155F8042B002308E04C2BF9D186
:101B2C00073525F007031D465B6855F8082B23285D
:101B3C0025D1880621D5554F023C01F06001A1F159
:101B4C00390B0DF12D0E002602F00F01092988BF6B
:101B5C00594430310EF8011D102A4FEA121141EA96
:101B6C0003714FEA131073F1000306F1FF3C08D226
:101B7C00C6F1010B06F13003A1E7454FDCE7414FFD
:101B8C00DBE766460A460346DEE755F8046B30464B
:101B9C0004F0B9FCB8F1000F834602DB4045A8BF46
:101BAC00C346384F4FF00008A8EB0B03002B92DD17
:101BBC00A4EB0804A6E755F8043B8DF81830013C5B
:101BCC004FF0FF334FF0010B06AE9AE7A046EBE760
:101BDC00029301992020D047029BB8F10108F7D558
:101BEC0024EAE472013C9144A41AB84606E004933A
:101BFC0002920199D047029A049B9046424612F8F1
:101C0C00010B0028F3D11A46013A15D5002BACBFB5
:101C1C00C7EB03077F425B46013B15D5BBF1000FB9
:101C2C00A8BF5F444F442646013E14D5002CA8BFE4
:101C3C003F1907EB080913E604930292019930202F
:101C4C00D047049B029ADFE70293019916F8010B27
:101C5C00D047029BE0E701992020D047E4E701221E
:101C6C00D3E6904661E614465FE64C235DE64846B3
:101C7C000DB0BDE8F08F00BF0E960000769100000D
:101C8C0078910000668B0000809100007A91000032
:101C9C007D91000008B54FF02002EFF3118382F321
:101CAC001288BFF36F8F01F04DFA034804F007F868
:101CBC0000F0FEFDFCE700BF8691000002F0E4BDE1
:101CCC0070B5114B1C680D46DCB1104B1968002324
:101CDC008B4202DB6FF0010070BD224612F8106BD4
:101CEC00864202D001331446F2E7E06810B96FF077
:101CFC001200F1E706F05AFC0028F8D02C60002006
:101D0C00EAE76FF00C00E7E70C00002060880000A9
:101D1C0070B588B005460C46C0B269461646FFF74A
:101D2C00CFFF00281BDB0098C8B14368029383687F
:101D3C0022680195CDE903360023CDE906230593EE
:101D4C00C56804F0B0F86DB12846084901AA04F042
:101D5C0050FD079808B9059B236008B070BD6FF063
:101D6C001500FAE76FF01200F7E700BF4D5F0000B7
:101D7C00F7B5254E306883685B6C03B198473068C3
:101D8C0083685B6B002B32D1204C214D306883680B
:101D9C009B69002B2ED001220DF1070198470128D9
:101DAC0028D1236843B92B6833B369681A682A6051
:101DBC008B4200D16A602360164A9DF80700118897
:101DCC00B1F5007F04D223680B444F1C17801872A6
:101DDC000A28DBD123681188596000200E4918604D
:101DEC004D6875B9C1E9003310802060CDE7984784
:101DFC000028C9D103B0F0BD0848452104F046F8CD
:101E0C00F8E72B604B60EFE700120020D80D0020A4
:101E1C00E80D0020F8120020E00D0020AF9100002A
:101E2C0010B5044B044618688368E1B25B689847A8
:101E3C00204610BD00120020F8B50546164608468F
:101E4C004FF02003EFF3118783F31288BFF36F8FEA
:101E5C001B490B684BB11B4C62689A4205D000229F
:101E6C001A60626862B9C4E90033174A136853B93F
:101E7C0087F31188BFF36F8F0B6018463360F8BD82
:101E8C0013606360F1E7D2F804C01C68146063450A
:101E9C0008BF546087F31188BFF36F8F5C680B60C9
:101EAC00A042D8BF00F1FF3403F1080122462846B6
:101EBC0004F057FB00232B55601C0123DEE700BF09
:101ECC00DC0D0020E80D0020E00D00201C4B37B588
:101EDC000025C3E900551B4B1B4A1C4C1C481360C6
:101EEC0003F50271C3F8085219605160206006F0C6
:101EFC005DFB10B32068836823B19B6C13B115494B
:101F0C002A469847206883685B6B0BB1984748B1A9
:101F1C00206883689B69002BFAD001220DF1070120
:101F2C009847F4E70C4B206800221A8083689B6A60
:101F3C0003B19847002003B030BD4FF0FF30FAE7F3
:101F4C00E00D0020F00D0020E80D00200012002014
:101F5C005C8600007D1D0000F81200202DE9F04386
:101F6C00D9B040F60613ADF80830DFF8EC903B4BD7
:101F7C00D9F800101B683A4E3A4DA3EB06080B78C3
:101F8C0001330B7098FA98F34B808B8800205BBA66
:101F9C008B804870082203F07CFE42463146ADF837
:101FAC000C0003F076FE2B6840BA1FFA88F4ADF8EB
:101FBC000C005B6802A80221984704F10A035BBA83
:101FCC000DF10E01022205A8ADF80E30022704F027
:101FDC00C8FAD9F80010ADF80E7008220DF11600F1
:101FEC0004F0BFFABDF80E00083005AB80B2ADF8B6
:101FFC000E0042463146184404F0B3FABDF80E30D8
:10200C00E01880B205ABADF80E003A4603A91844AF
:10201C0004F0A7FABDF80E303B449BB204AAADF80D
:10202C000E300093BD2105AB28A8FFF7CDF904991C
:10203C002B68ADF80E1028A85B6889B298472B68FE
:10204C0009485B68012198470848492103F01EFFA5
:10205C0059B0BDE8F08300BF4812002018120020D0
:10206C00FA2B00204C120020658B0000ED91000033
:10207C00F0B5064685B0B3689A420C4610461DD2A0
:10208C0091421DDC02A9FEF74DFAB8B9DDE9025305
:10209C001D446B1ECDE9003022460C48E317492144
:1020AC002F1B03F0F3FE3A462146304603F026FF81
:1020BC00024640B10648452103F0E8FE6FF01504D6
:1020CC00204605B0F0BD2C46FAE700BFF5910000A4
:1020DC0014920000F0B50C68164F174B85B00238FF
:1020EC000D46C4F58061009003AA38190131FFF741
:1020FC00EBF90446D0B92B68039A1344022B2B60DE
:10210C0011D93E8876BAB6B2023B9E420BD132460A
:10211C00B91C03F0BEFD30B9022E04D92B689A1EEF
:10212C002A60FC540124204605B0F0BD4FF0FF346A
:10213C00F9E700BF7B2C00207E30002007B5CDE9ED
:10214C0000016946024804F01CF903B05DF804FB79
:10215C001812002038B50B4C05460A21204604F015
:10216C0022F909480221FFF7E9FF2946204604F02D
:10217C00F8F820460A2104F034F9BDE83840FFF79E
:10218C00EDBE00BF181200203692000007B5064ABB
:10219C00064800230093022102F1800304F023F986
:1021AC0003B05DF804FB00BFFA2B002018120020CE
:1021BC002DE9F0470729A8B0044640F29480037833
:1021CC0013F0FD0640F08F8043885BBAA1F108053F
:1021DC009BB2AB42C0F08780A64B186083885BBA79
:1021EC008380FFF7D3FFA088012840F0C181E779F5
:1021FC003FB1012F7CD0082028B0BDE8F047FFF795
:10220C00A9BF01469C48DFF87482DFF8749204F091
:10221C00CAF89C480621FFF791FF9748052104F066
:10222C00B3F83C46984F2146002003F0C4FA07A9A6
:10223C00C0B2FFF745FD0546002849D120230DEB20
:10224C0003020146079803F02FFE089B3E684345A6
:10225C000DD14023019318AB0093CDE90355079B97
:10226C00029508AA29462846FEF774F906460798EF
:10227C0003F019FED9F80030B34229D114217E485D
:10228C0004F091F881480421FFF758FF21467A4861
:10229C0004F06BF87E480721FFF750FF0E9B02936A
:1022AC00BDF8363001939DF835307A4A00934021C1
:1022BC009DF8343018A800F013FF18A804F023F987
:1022CC00014618A8FFF73AFF6B48142104F089F86F
:1022DC0064B10521684804F075F80121664804F0E2
:1022EC0080F8FFF73BFE28B0BDE8F08701249AE7A1
:1022FC0007AB08AA294604F10800069600F030FA4C
:10230C0028B3032422466448492103F0BFFD0A2167
:10231C00594804F048F861480221FFF70FFF56486E
:10232C00214604F01EF844B95D480321FFF706FF6F
:10233C005C4B5148196804F018F80A214E4804F017
:10234C0050F8FFF70BFE069803F0ADFDCBE7079BAB
:10235C009D42D6D14FF0FF39179C08AA0146C846BA
:10236C0005460746A14222D1B8F1FF3FC9D0002F44
:10237C00C7D0002103F01FFA06A9C0B2FFF7A0FCDA
:10238C0004460028BDD1474EB8F1000F66D106981F
:10239C003460D0F8088003F0C3FA4349FEF7C2F862
:1023AC00C8B14248452103F071FD0124AAE7137A14
:1023BC00032B04D8DFE803F00206090C1068013186
:1023CC000C32CFE7D2E90075F9E7D2F80090F6E7C6
:1023DC00D2F80080F3E7C84593D3354B1C60354BDE
:1023EC00C3F800903268DFF8C8800698D8F800105F
:1023FC00013A2A44FFF73CFE0028C8F8000080DBB5
:10240C000698DFF8B09003F08DFDB5FBF0F303FBFD
:10241C0010503268C1B2A5EB010808EB0203D9F8E1
:10242C0000501944A94238BF0020C5B249212248A6
:10243C0003F02CFD069803F075FD012805D90698CC
:10244C0003F070FD013807426FD13168069843469E
:10245C003A4603F03EFD002855D052E73368434519
:10246C007FF450AF134A126805EB08039342B9D9B5
:10247C0047E700BF48120020181200203DB8F39621
:10248C0070010020399200000000002040920000F2
:10249C00459200004D9200007C92000036920000A4
:1024AC008A920000141200200C1200206C8C000088
:1024BC0008120020041200205C920000C24506980D
:1024CC0088BF5FFA88FA03F034FD4022014618A851
:1024DC0004F052F85246394618A804F042F8316814
:1024EC000698534618AA03F0F4FC00287FF409AFB1
:1024FC003368534433605744A8EB0A08069803F03A
:10250C0011FD8045DAD29DB93368D9F800202B44EF
:10251C004344934233607FF4F5AE204B06981A681F
:10252C001146FFF7A5FDC40FECE64FF0400AE5E7B6
:10253C00069803F0FEFC0822014618A804F01CF8CB
:10254C002A4607EB080118A804F00BF8DDF818A0D0
:10255C003168504608EB010703F0E4FC18AA034667
:10256C003946504603F0B5FC00287FF4CAAECBE7E1
:10257C0000287FF440AEE379012B3FF43DAE052BF0
:10258C0003D0002B7FF437AEADE6FFF7E3FD044834
:10259C0006F021F80120FFF77DFB00BF0C12002094
:1025AC0090D003002DE9F341DFF8A480294D2A4F88
:1025BC00012388F80030294B00240646009418604B
:1025CC0098F8003013B902B0BDE8F08100F070F952
:1025DC00234BC4F58061C3F80056C3F80456C3F806
:1025EC000856C3F80C56C3F81056C3F81456C3F863
:1025FC001856C3F81C56336801AA0131381998478C
:10260C000028019B01DC002BDAD004442BB940F2EA
:10261C0001439C42D4D10024D2E73B78062B09D14C
:10262C007B78092B0BD1002300936946A01EFFF782
:10263C0051FD04E0042B02D17B78142BF5D001283A
:10264C00E9D1009907480239FFF7B2FDE3E700BF73
:10265C007A2C00203546526E7C3000204C12002023
:10266C00000001407D2C002073B504460D4603F09C
:10267C000DFF002868D0354B009369460523204692
:10268C00019303F0D9FD60B12946204603F0B5FD56
:10269C0038B100232B72204603F0FFFE012002B05C
:1026AC0070BD204603F0F5FE78B1294B00936946C6
:1026BC0004232046019303F0BFFD30B12946204688
:1026CC0003F0B7FD08B10123E4E7204603F0E1FE77
:1026DC0078B1204B0093694603232046019303F005
:1026EC00ABFD30B12946204603F087FD08B102232B
:1026FC00D0E7204603F0CDFE78B1174B00930326AC
:10270C0069462046019603F097FD30B129462046D4
:10271C0003F073FD08B12E72BDE7204603F0B9FE3D
:10272C0078B10E4B0093694603232046019303F0C6
:10273C0083FD30B12946204603F07BFD08B104230C
:10274C00A8E7204603F0A9FE0020A8E7D28E0000DF
:10275C008E920000939200008A92000097920000E3
:10276C002DE9F0439DB004AC4FF0010907460E462D
:10277C0090461D4602460B46CDF80090042120469B
:10278C0003F08FFE204603F05AFD70B10C23CDE907
:10279C0001830094114B08F13C020521484603F0DB
:1027AC006EFD60B9204603F065FD099BD8680022D8
:1027BC009042DA6008BF1F201DB0BDE8F0832046B0
:1027CC0003F056FD0028F0D00DB90020F4E7049B6F
:1027DC00DB1BB34294BF2B602E60F6E7752600001E
:1027EC0002464B1E0846D15C51B102280FD9084B4A
:1027FC000344012013F8023C9840C0B270472BB13F
:10280C001846013BD15C0029F9D0EEE71846704719
:10281C009B920000F8B505460F4610461946164621
:10282C00FFF7DEFF01282A68E96804461CD13378DB
:10283C00172B04D9931C99421AD3002325E0501C62
:10284C00814215D300248A4212D2511C03F01F037B
:10285C00296043EA471111703444B44218D1AB6873
:10286C000133AB60012007E0431C1344994204D2AE
:10287C006B690822DA600020F8BD08B93378E2E70A
:10288C00831E062BD9D80648C35C1833DBB2DAE7B3
:10289C002B685A1C2A6014F8012D1A70DDE700BF52
:1028AC009B920000014910220A60704710ED00E075
:1028BC0072B6404080F31188BFF36F8FBFF34F8F18
:1028CC0030BF62B6BFF36F8F704700BF72B649401E
:1028DC0081F3118820BF80F3118862B6704700BF66
:1028EC0037B505460C46C9B18B680093D1E9002376
:1028FC000E48452103F0CAFA63690093D4E9032317
:10290C000B48452103F0C2FAE2690A48452103F05D
:10291C00BDFAA2690848452103F0B8FA21462846B9
:10292C0003B0BDE8304002F09FBD00BFA292000092
:10293C00D69200000A9300001E93000040B20028BB
:10294C0007DB044A4109012300F01F00834042F8D1
:10295C002130704700E100E0054B420900F01F00F8
:10296C0053F82220012303FA00F01040704700BFF7
:10297C0000E100E040B20028A8BF00F1604001F186
:10298C000101B8BF064B4FEA4111ACBF00F56140E5
:10299C0000F00F00C9B2B4BF195480F8001370478F
:1029AC0014ED00E030BFFFF7FDBF00BF0B4A08B5C8
:1029BC000B4B22F07F029A60BFF34F8FBFF36F8FE8
:1029CC00D3F8882022F47002C3F8882002F0C4FDEA
:1029DC0002F00AFE00F05EFA02F0CAFD00000000F0
:1029EC0000ED00E01EF0040F0CBFEFF30880EFF3D6
:1029FC000980816911F8021C0229FFD001B503F08E
:102A0C0073FD01BD10F1160F074B08D0984208D387
:102A1C004033834205D98B4203D904487047403375
:102A2C00F9E70020704700BF003D0020403D00202A
:102A3C0004462025084611461A46084B83F309889C
:102A4C0063B64FF0000383F31188BFF36F8FA04779
:102A5C0085F31188BFF36F8FFEE700BF4065002040
:102A6C0001B5EFF30580A0F110004FEAC000044956
:102A7C00014409C99847BDE80140024908470000D4
:102A8C008C860000952A0000704700BF2DE9F041AC
:102A9C00324C0746884632484521154603F0F6F974
:102AAC00A36ADE0603D52F48452103F0EFF9A36A8C
:102ABC00180703D52C48452103F0E8F9274CA36AE5
:102ACC00990728D46FF01506244CA36ADB0703D5AD
:102ADC002648452103F0DAF9A36A9C0603D524485D
:102AEC00452103F0D3F91D4CA36AD80628D4A36A58
:102AFC00990725D40020A36A184A9B0642BF636A33
:102B0C0023F400536362936A43F0FF039362002340
:102B1C002B70BDE8F0811748452103F0B7F9666BBF
:102B2C00A36A1A06CED514483246452103F0AEF9F5
:102B3C00B8F1000FC8D0A36A23F08003A362C3E7E7
:102B4C0063681A05D6D539463046FFF75BFF002877
:102B5C00D0D080F309880220CDE700BF00ED00E063
:102B6C00519300006C930000A4930000F4930000B8
:102B7C0018940000BC930000D993000010B51D4CB4
:102B8C001D48452103F082F9A36A9B0103D51B481C
:102B9C00452103F07BF9A36ADC0103D518484521D4
:102BAC0003F074F9134CA36A180303D51548452197
:102BBC0003F06CF9A36A590303D51348452103F0BC
:102BCC0065F90C4CA36A9A0303D51048452103F010
:102BDC005DF9A36ADB0303D50D48452103F056F9D3
:102BEC00044A936A6FEA03436FEA1343936200202B
:102BFC0010BD00BF00ED00E04C9400006994000093
:102C0C0081940000A0940000C3940000ED94000097
:102C1C000C95000070B5234C06460D462248452104
:102C2C0003F034F9A36AD90403D52048452103F0F5
:102C3C002DF9A36A1A0503D51D48452103F026F981
:102C4C00184CA36A9B0510D51A48452103F01EF9B0
:102C5C00A26BA36A180408D51748452103F016F98E
:102C6C001EB1A36A23F40043A3620E4CA36A590558
:102C7C0003D51248452103F009F9A36ADA050BD5EF
:102C8C000F48452103F002F9064A936A002043F4E9
:102C9C007F439362287070BDA36A9B04F4D50948E6
:102CAC004521EFE700ED00E03C9500005795000052
:102CBC00A49300006D9500008B950000A595000075
:102CCC00C5950000189400002DE9F0415D4B5F683C
:102CDC008AB00546C7F30804002686F31188BFF3B3
:102CEC006F8F02F07F43B3F17F4F07D102F00C03DB
:102CFC00082B14D15448452103F0C8F8002635465A
:102D0C004FF00008E31E8DF80780092B00F2878036
:102D1C00DFE803F00A7A7E76858585858582100743
:102D2C004CBF0D460126EBE74848464C452103F0C5
:102D3C00ADF88DF80780E36A9A0705D5444845211C
:102D4C0003F0A4F8002433E0E36A002B02DA4148D4
:102D5C004521F5E7E36A5B00F4D53F48452103F0D4
:102D6C0095F86369AA6943F480736361BFF34F8F6D
:102D7C00BFF36F8F636932F8022C23F480736361A5
:102D8C00BFF34F8FBFF36F8F4DF602739A4209D08A
:102D9C00A36ADBB233B30DF1070201212846FFF71A
:102DAC0075FE2FE02A682D48452103F06FF82C683A
:102DBC009DF807309BB92022294602A803F0D1FBCD
:102DCC00099B002E38D0C3F3080222B96FEA5323B3
:102DDC006FEA4323099302A92046FFF781FD0AB04D
:102DEC00BDE8F081A36A13F47F4F05D00DF1070104
:102DFC000120FFF70FFF05E0A36AB3F5803FA1D3D5
:102E0C00FFF7BCFE0446D3E70DF107020021C5E72E
:102E1C000DF107010020ECE71148452190E711491D
:102E2C00114A124817F4F87F08BF0A46A4F11003A0
:102E3C00452103F02BF885E723F4FF7323F00103FE
:102E4C00C8E700BF00ED00E01096000040960000BF
:102E5C005C9600008296000095960000B9960000E2
:102E6C00DA960000E2950000F79500000397000049
:102E7C00024A536943F010035361704700ED00E0C0
:102E8C00EFF30880EFF3098101B57246FFF71CFFE1
:102E9C0001BD00BF044800232021C2180133272B99
:102EAC0082F80013F9D1704700E100E0002080F3B4
:102EBC001488BFF36F8FFEF701FF00200D490860E7
:102ECC00BFF34F8F0C4880F3088800F02BF82020BC
:102EDC0080F3118809484FF40461401880F3098885
:102EEC00EFF314800221084380F31488BFF36F8F33
:102EFC00FFF75CFD94ED00E000650020C03400207D
:102F0C000749D1F890200023C2F3072218469342B8
:102F1C0000DB7047C1F89830C1F8A0000133F6E728
:102F2C0000ED00E008B572B6002383F31388FFF7B9
:102F3C00E7FF144B4FF0FF32C3F88020C3F8842016
:102F4C00C3F88820C3F88C20C3F89020C3F89420D1
:102F5C00C3F89820C3F89C20C3F88021C3F88421BF
:102F6C00C3F88821C3F88C21C3F89021C3F89421AD
:102F7C00C3F89821C3F89C2162B6BFF34F8FBFF3FF
:102F8C006F8F08BD00E100E0024B034A03480221A9
:102F9C0000F06CB80000012000000020B488000094
:102FAC00F8B5244E00258D420FDA4468002C3ED033
:102FBC009BB104F1FF3C14EA0C0F08D01E482A46C2
:102FCC00452102F063FF6FF015021046F8BD1F2C6F
:102FDC00F4D907681CEA070FF0D1202C0768D0F849
:102FEC0008C05FFA82FE10D9B4F1004F0FD8013C33
:102FFC00B4FA84F4C4F11F046400BEF1070F4CEA68
:10300C00040C06D90D484521DBE70824F5E73E24DE
:10301C00F3E727F01F04144344F01004C6F898207B
:10302C00C6F89C404CF00104C6F8A04001320135B2
:10303C000C30B8E700ED00E01F9700004797000048
:10304C00044B0522C3F89420BFF34F8FBFF36F8F4F
:10305C00704700BF00ED00E0BFF35F8F024B002212
:10306C00C3F89420704700BF00ED00E010B5034C8E
:10307C0001232278FFF794FF207010BD7D340020CF
:10308C0014490868082810B521D8FFF7E5FF124C41
:10309C0049680022904201F10C0105D10F4B1870C8
:1030AC00FFF7CEFF002010BDC4F8982051F80C3C5F
:1030BC0023F01F03134343F01003C4F89C3051F862
:1030CC00043C43F00103C4F8A0300132E2E74FF0B6
:1030DC00FF30E8E7CC88000000ED00E07D340020F4
:1030EC000CB410B586B009B90DF10B000024CDE974
:1030FC00040109AB089A009404A905480393FEF750
:10310C00A5FB049B1C7006B0BDE8104002B07047D4
:10311C00976500004FF02003EFF3118283F31288C0
:10312C00BFF36F8F06490123C1F840354FF0804142
:10313C00C1F8783582F31188BFF36F8F0020704788
:10314C0000E001404FF08043C0B2C3F81C05BFF350
:10315C004F8F0549054BCA6802F4E0621343CB60FC
:10316C00BFF34F8F00BFFDE700ED00E00400FA0550
:10317C0020B1034B800143F001031847704700BF97
:10318C0030880000084B70B5C31A0D4607499B10D8
:10319C00044659430648402203F020FA2B460146C8
:1031AC002046BDE87040184764120020B76DDBB6AE
:1031BC002C86000073B50C4C0C4A4023041B009366
:1031CC000D460B460A49A41061430646094803F014
:1031DC0031FA011E05DA30462B4602B0BDE87040CC
:1031EC00184702B070BD00BF64120020B166000029
:1031FC00B76DDBB62C860000002270B501210446A9
:10320C001046FFF7B7FB0F4801F026FD0E4B984216
:10321C0015D105F09FF926690C49304602F0ACFD3A
:10322C0000280BDB012535642469084904F11C00D6
:10323C0002F0A2FD002801DBE564002070BD6FF0F8
:10324C000400FBE7913200000000AD0BEC8800009D
:10325C0070B501460C2309484B43C418D4E90E56EB
:10326C0000224033A263184403F0A5F92DB1324675
:10327C002B460348BDE87040184770BD641200200F
:10328C002C86000010B1012804D07047034B1B6C36
:10329C005B0701D1FFF7DCBF704700BF6412002051
:1032AC0008B54FF02003EFF3118183F31288BFF3BD
:1032BC006F8F124A136843F002001060DA0708D4CB
:1032CC0081F31188BFF36F8F0120BDE8084001F036
:1032DC00D3BC4FF08043D3F80C24D3F80C34D30771
:1032EC00EED5074803F067F981F31188BFF36F8FB0
:1032FC000020BDE80840FFF7ABBF00BFB4120020B0
:10330C00A412002010B5074C23782BB94FF4A570EC
:10331C0005F061F901232370BDE81040002001F095
:10332C00ABBC00BF7E340020094BBFF35B8F53E86E
:10333C00002F22F0020143E800100028F7D1BFF360
:10334C005B8FD30702D4012005F011B9704700BF81
:10335C00B41200202DE9F8433649BFF35B8F0746C2
:10336C00012251E8003F41E800200028F9D1BFF3C9
:10337C005B8F33B9304931484B60CB608A6002F0C7
:10338C000EFD7B1E012B2DD8012F07D14FF0804352
:10339C00D3F81C3403F00303012B23D005F015F9EB
:1033AC00054608BB264B1B78F3B14FF08043022235
:1033BC00C3F808230646DFF88C904FF080444FF09A
:1033CC000108D4F81834D4F81824D20316D503F015
:1033DC000303012B01D0012F10D12DB386F31188DB
:1033EC00BFF36F8FBDE8F8834FF02003EFF3118626
:1033FC0083F31288BFF36F8F0125DCE73046FFF7AC
:10340C0065FAD4F81835002BDBD1D4F80421002A46
:10341C00D7D0C4F80431D4F80431C4F81885C9F8ED
:10342C008081C4F80880CCE74FF080430222C3F8B7
:10343C000423D7E7601200205012002080120020D5
:10344C00A134002000E100E030B54068057B01F0BC
:10345C001F04B2F5001F85B044EA451405D120467F
:10346C0001F0CEFE002005B030BD0025B2F5800F76
:10347C00CDE9025514D1B3F1007F0CBF0423052311
:10348C008DF808300023194602AA204601F0EEFC04
:10349C001D4B984235D10121204601F06DFEE1E72C
:1034AC00B3F1C06F22D0B3F1007F14BF012302230C
:1034BC008DF808308368CB40D907E3D4B2F1A07FF4
:1034CC00E0D104F01F0303F5E0734FF0A04252F873
:1034DC002330DB07D6D40DF107052946204601F031
:1034EC00F7FD0A4B984203D00395CBE70323DFE7A4
:1034FC00284601F03BFE044B9842F5D06FF00B00D0
:10350C00B1E76FF01500AEE70000AD0B0400AD0B9A
:10351C0010B501F01BFE044668B901F0EFFD084B35
:10352C0098420AD10748214601F0CCFD22460521DC
:10353C000620FFF71FFA002010BD6FF00400FBE718
:10354C000000AD0B55350000430970B507D10B4B8E
:10355C00596821B101250C68094E854001B970BD2F
:10356C008A682A4002D04B68304698471CB12368C1
:10357C0021461C46F2E72346FAE700BFB8120020AA
:10358C00448600002DE9FF4147683B7B01F01F0595
:10359C0045EA43150E4628460DF10301144601F089
:1035AC0097FD14F4403F80460BD1284601F050FEA5
:1035BC003D4B984503D19DF8030001F0D1FD00204F
:1035CC000CE00023194602AA2846CDE9023301F08B
:1035DC004DFC354B984204D06FF0150004B0BDE89B
:1035EC00F081804503D19DF8030001F0B9FDA303E0
:1035FC004BD540F206332340B3F5837F19D00CD85A
:10360C00062B17D004D8ABB1022BE5D1042311E063
:10361C00B3F5807FE0D101230CE040F2022293420B
:10362C0027D0B3F5407F26D0B3F5007FD4D1022349
:10363C0000E007238DF8043084F48033C3F3004397
:10364C00E0068DF8053054BFC4F340130323210367
:10365C008DF8063011D57A680123B340C2F80835CD
:10366C00002201A9284601F0AFFC0F4B9842A6D0CE
:10367C00B2E70523DEE70323DCE7620341BF012346
:10368C007A68B340C2F80C35EAE7E3064FF0000362
:10369C0054BFC4F3401403241A4601A928468DF8DC
:1036AC00044001F0E3FBE0E70000AD0B024B0B60C4
:1036BC0001231360704700BFC412002000487047FC
:1036CC007489000010B504F06CFF034C206004F00A
:1036DC0064FF6060002010BDC4120020F8B50E46D7
:1036EC00144604F05AFF21460546304603F03BF8D9
:1036FC00374600B3B6FBF5F305FB136323B9B4FBF4
:10370C00F5F305FB134343B10D48234632464521DF
:10371C0002F0BCFB6FF0150002E0A54201D90020BD
:10372C00F8BD04F03AFF0546384601F069FE641B0B
:10373C002F44F9D1F3E70348234632464521E7E706
:10374C00BC970000E0970000F8B50E4630461946CD
:10375C0017461D4603F007F840B913482B4632466E
:10376C00452102F093FB6FF01500F8BD46EA050405
:10377C0014F0030404D00D482B4632464521F0E7E3
:10378C004DB12B19032BA6EB040006D8084AD2F82E
:10379C000034DB07FBD50020E7E73B1B043C196832
:1037AC0001F04EFEEDE700BFE0970000029800002C
:1037BC0000E0014070B50D462846194616461C46D9
:1037CC0002F0D1FF40B9084823462A46452102F0B1
:1037DC005DFB6FF0150070BD24B1224629463046C2
:1037EC0002F0BFFE0020F6E7E0970000F8B50446B3
:1037FC0007690D4604F0E9FE90B91F4B1B787BB1AD
:10380C006426606803F0F0F8E0B9012004F0A0FE33
:10381C00013EF6D1F4E781F31188BFF36F8FEFE728
:10382C004FF02003EFF3118183F31288BFF36F8FF6
:10383C0060680E4603F0D8F890B981F31188BFF395
:10384C006F8FEDE74FF02003EFF3118183F31288B4
:10385C00BFF36F8F60680E4603F0C6F80028DAD00D
:10386C007B691D7079690122204602F0FDFF86F309
:10387C001188BFF36F8FF8BDA134002070B54B7960
:10388C00012B20D18B79032B1DD1CD790DB1012DBD
:10389C0019D10A7912B1022A15D10E220B6844688B
:1038AC00B3F5164F266864D02BD8B3F5165F63D0EA
:1038BC0014D8B3F5966F61D008D8B3F5967F60D065
:1038CC00B3F5167F60D06FF0850051E0B3F5166F3D
:1038DC005DD0B3F5965FF6D1374B3CE0B3F5E14FD5
:1038EC0058D007D8B3F5615F56D0B3F5964FEAD1EF
:1038FC00324B30E047F61224A342E4D14FF40003DC
:10390C0029E0B3F5613F49D013D8B3F5963F48D0C1
:10391C0009D84DF6C024A34245D0B3F5614FD2D19E
:10392C004FF46B0317E0B3F5E13FCCD14FF0EB73E1
:10393C0011E0B3F5612F39D008D8214CA34238D00F
:10394C00B3F5E12FBFD14FF0E86304E01D4CA34267
:10395C00B9D14FF080530469C6F8243543681B680D
:10396C002A43C3F86C2503C9231D83E803000020F8
:10397C0070BD4FF41D03EEE7134BECE74FF49E23A1
:10398C00E9E74FF4A033E6E74FF41C33E3E74FF4D9
:10399C001D23E0E70D4BDEE70D4BDCE74FF06C73BE
:1039AC00D9E70C4BD7E74FF46503D4E74FF07063BE
:1039BC00D1E74FF08063CEE700B0130000A04E00BB
:1039CC0090D0030040420F000050270000C075004B
:1039DC0000F03A0000903A012DE9F74380460022AE
:1039EC0001210220FEF7C6FF0220FEF7A7FFD8F840
:1039FC000470D8F810603C680021C4F80015C6F8B3
:103A0C000080D7F80C9001AA484603F099F8051EDF
:103A1C001EDB019BD9F800201979186803F0A6F871
:103A2C00051E15DB311D4046FFF728FF054678B90A
:103A3C007B68990724D506F11C0001F00FFD244B7F
:103A4C00984209D02348452102F020FA6FF0040572
:103A5C00284603B0BDE8F083337FDB0003F18043DD
:103A6C0003F5F83304F10C0204F59071C3F810154A
:103A7C00C3F81425327F01239340174AC2F804354A
:103A8C000823C4F800353B7A53B9C4F81031D4F884
:103A9C001031B369C4F834350123C4F838352360C8
:103AAC007B689A075CBF4FF48073C4F804337B685F
:103ABC00DB0644BF4FF48003C4F804337369C4F8C5
:103ACC0044350023C4F848350123A360E360BFE705
:103ADC000000AD0B4998000000F0014070B50123C7
:103AEC0083400E4ABFF35B8FDC4352E8001F01EAB0
:103AFC00040542E80056002EF7D1BFF35B8F4FF45C
:103B0C00803282400648C0F80823BFF35F8FBFF3B2
:103B1C006F8F0B4214BF0120002070BDD01200200B
:103B2C0000100140F8B51B49044622F07F45086897
:103B3C00C1E90023A5F50013101AB3F5400F0FD3FC
:103B4C0001F0B2FDA30003F1804303F58833D3F8F1
:103B5C00402595421DD14FF40002C3F8402512E0D8
:103B6C000D4B1B681A0A1B065E190C4B42F1000721
:103B7C00C3E9006701F098FD094A04F5A87352F8EF
:103B8C0023309D4205D1064A4FF48033A340C2F83E
:103B9C004433F8BDD8000020D4120020E0000020EF
:103BAC000010014011B3BFF35B8F0123104A834017
:103BBC0052E800CF4CEA030C42E800C10029F7D1CF
:103BCC00BFF35B8F0B4A4FF480338340C2F804334E
:103BDC00094BBFF35B8F1B68BFF35B8FC340DB07E5
:103BEC0042BF064B4FF40032C3F80021704700BFB0
:103BFC00D012002000100140CC12002000E100E0A7
:103C0C000D4B1868010A0006BFF35F8F0B4BD3F8FE
:103C1C000435181841F10001B3F5801F0AD2084B86
:103C2C00D3E90023904271EB030303D210F18070AF
:103C3C0041F10001704700BFD41200200010014078
:103C4C00E00000202DE9F74F14461D460746FFF70C
:103C5C0045FF0090FFF7D4FFA04271EB05037AD229
:103C6C00464B201A65EB0101984271F1000180F07E
:103C7C008180434B03EB0713D3E902239D4208BF1A
:103C8C00944253D04FEA870A0AF1804A07F150094F
:103C9C000AF5883A4FEA89091FFA89F924F07F4816
:103CAC0009F180494FF48033DAF84005354A09F5BB
:103CBC008839BB404646D2F804B5A0EB0B0020F087
:103CCC007F402BF07F410128CAF8401505D10193A4
:103CDC00132004F080FC2B4A019B0BF1020CA6EB89
:103CEC000C0020F07F40B0F5000F88BF6646002026
:103CFC00C9F80000D9F80000C2F8443326F07F4020
:103D0C00CAF84005D2F80405834506D0301A0238AB
:103D1C0020F07F40B0F5000F1BD8A6EB080626F06C
:103D2C007F46361945F1000334461D4614490C985C
:103D3C003B0101EB0712C8500D9B5360C2E90245D1
:103D4C00002438460099FFF72DFF204603B0BDE84C
:103D5C00F08F3046AFE701230B4ABFF35B8FBB40BC
:103D6C0052E8000F184342E800010029F8D1BFF3D4
:103D7C005B8FDBE76FF01504E3E700BF0100000188
:103D8C00C800002000100140CC12002073B5194B64
:103D9C00194D00244FF0FF304FF0FF31C5F80845A6
:103DAC00C3E902014FF48033C5F80433134B0226E8
:103DBC004FF400320121C5F804631120C3F88021AF
:103DCC002246FEF7D7FD1120FEF7B8FD0C4A012361
:103DDC00AB602B6013600B4B0B4A009301940023D8
:103DEC002046FFF72FFF3046FFF7B4FA204602B00B
:103DFC0070BD00BFC80000200010014000E100E0D1
:103E0C00D0120020313B0000FFFF7F002DE9F7436B
:103E1C00334CD4F804339A070BD5D4F8043143B19E
:103E2C00304A0023C4F80431D4F804311368013348
:103E3C0013604FF02003EFF3118283F31288BFF36A
:103E4C006F8FD4F80433DB0329D5BFF35B8F264B7C
:103E5C0053E8001F21F0010043E80005002DF7D1C5
:103E6C00BFF35B8F11B9D4F84031C3B10025C4F84E
:103E7C004051D4F8403182F31188BFF36F8FFFF7B4
:103E8C00BFFE4FF02003EFF3118283F31288BFF3D0
:103E9C006F8F164BD3E90267B042B94106D282F359
:103EAC001188BFF36F8F03B0BDE8F0834FF0FF387C
:103EBC004FF0FF39D3E90010C3E902891D604FF4BC
:103ECC008033C4F8483382F31188BFF36F8F002915
:103EDC00E9D0009032463B4628468847E3E700BFCE
:103EEC0000100140D4120020CC120020C800002089
:103EFC00431C13B521D0012821DDB0F5000F20DAC9
:103F0C00441EFFF77DFE104BD3E90013421AB2F5A5
:103F1C00000F0E4828BF002401322244824228BFE1
:103F2C00024652184FF0000009490190009143F1EC
:103F3C000003FFF787FE02B010BD0448E0E7002441
:103F4C00DFE7024CDDE700BFD8000020FFFF7F0059
:103F5C00313B000008B5FFF753FE024B1B68C01A3B
:103F6C0008BD00BFD8000020034808B5452101F06A
:103F7C008DFF0020FFF7E6F88B98000030B58168C4
:103F8C0085B0103921F00704054601F0D2FF10224C
:103F9C000146684602F0F0FA07491022684602F022
:103FAC00E0FA10236A462146284601F092FF0038B9
:103FBC0018BF012005B030BD208B000030B50D4678
:103FCC00816887B0102302AA1039044601F06CFFF7
:103FDC00002802DA012007B030BD102202A92046C9
:103FEC0002F053FE00283AD11E49102202A802F01A
:103FFC0091FA00280CBF012302232B70204602F0FB
:10400C0030FE012301460DF10702204601F04CFF62
:10401C000028DFDB9DF8073003F00F021B096A70E4
:10402C002B7101220DF10701204602F02EFE10B972
:10403C006B78042B03D901236B7000232B71A268BE
:10404C00183A22F00702083AA91C204602F030FE6A
:10405C000028BFD1E91C204602F083FEBBE70323F6
:10406C00CBE700BF208B00007FB5054669460120D9
:10407C0002F07DFE044610B1FF2004B070BD02A911
:10408C00022002F074FE012836D129482A46492123
:10409C0001F0FCFE274B02938DF80C409DF800506C
:1040AC009DF80860244C00222078294602F0DFFDA0
:1040BC0048B36078314602F0DAFD20B3A378042BC4
:1040CC0003D09DF8031099421DD1E378042B03D043
:1040DC009DF80B10994216D12379042B0FD16379DB
:1040EC00022B1BD1154A1648492101F0CFFE6079ED
:1040FC00831E022BC1D9BFE70028CFD0BCE79DF8A7
:10410C0002109942EBD00132032A04F10604CBD100
:10411C000C48492101F0BAFE0120AEE7032B05D073
:10412C00094A0A49042B08BF0A46DCE7084ADAE7C1
:10413C00D09800000301030343990000B2980000DB
:10414C001B9900002E990000B7980000C998000038
:10415C00AD98000001680E4A9142034615D1C16921
:10416C00A2F11022A2F1EF1291420ED18268012A23
:10417C000BD8C26812B101698A4206D0586928B1BD
:10418C009B691B1A5842584170470120704700BF69
:10419C0055AA00FF70B50D4B9E68A6B13046FFF7CF
:1041AC00D9FF044678B9F3686BB935690DB9204667
:1041BC0070BD2846FFF7CEFF28B9EB68B34202D199
:1041CC002E462D69F2E70124F1E700BFD81200203A
:1041DC002DE9F8433F4F3C68D4B1BC68C4B100280A
:1041EC004AD0002948D001FB00F5B5FBF0F088421D
:1041FC0042D1281D40D8A9070DD025F0030604365E
:10420C00FC6803E06368B34238D2A469002CF9D18E
:10421C002046BDE8F8832E46F2E7FB6041E006F14C
:10422C0020016318203A5A600022C3E902242A486C
:10423C0022691A6160502949D96102B1D36062695F
:10424C005A61A1699961AAB193619A6902B15361EA
:10425C004FF00109C4E9016923610023C4E9053366
:10426C003B69DB072ED5FFF795FF58B31C4B48462F
:10427C001B6826E0FB60E8E70024C9E7A3681BB1D4
:10428C00174B01201B6898476268921B232A04F184
:10429C002008C4D80123A360D4E90523002ABCD08C
:1042AC009361A3690BB162695A610023C4E90533B8
:1042BC003B69DA0706D5FFF76DFF18B1084B1B6891
:1042CC00012098472A4600214046444602F054F902
:1042DC009EE700BFD812002055AA00FF669911EE88
:1042EC004400002070B50546002800F08880444E3C
:1042FC003368002B00F08380B268002A7FD08342A1
:10430C0003D872681344984203D33E4B01201B68B8
:10431C009847A5F120042046FFF71CFF18B1394B34
:10432C0001201B68984755F8183C012B03D0354BDE
:10433C0001201B689847002345F8183C55F8143C9D
:10434C003BB39A682ABB55F81C2C02F120015A6821
:10435C000A445A6055E905321A6155F8145C2B6908
:10436C0003B1DD6020220021204602F005F9286906
:10437C0010B18368002B2ED033699B073FD5FFF714
:10438C0009FF00283BD01F4BBDE870401B68012083
:10439C00184755F8100C00282AD0836843BB426894
:1043AC00636813442033636003692361D4E90523F4
:1043BC009AB9CBB9436963618269A261B3B19C615B
:1043CC00A36903B15C61236903B1DC602022002185
:1043DC0002F0D2F8D0E72C46E1E79361A369002BF9
:1043EC00E8D062695A61E5E7F360F7E7F460E7E764
:1043FC00F36845F8083C03B15C61F460BCE770BD40
:10440C00D81200204400002038B514220C46054672
:10441C000021134802F0B0F81249134800F034F8A8
:10442C00232C1CD915F003031FBF043CE418C3F163
:10443C000403ED1822460021284602F09DF8084B93
:10444C000A499D60C3E90054203C6C609A68116075
:10445C009A68DA60A1F11021A1F1EF11D16138BD98
:10446C00D8120020F1420000DD41000055AA00FFE7
:10447C00014B1B68184700BF4C000020014B1B6808
:10448C00184700BF48000020024B1860024B002068
:10449C00196070474C000020480000200A4619B1F2
:1044AC00024B00211B681847704700BF50000020CA
:1044BC00F8B500F108064768044630460D4602F090
:1044CC00FEFF87424BD16368B3F5807F47D800214C
:1044DC00304603F05FF9002841DD0021304602F040
:1044EC00BFFFE0B345B9294604F1140003F052F9BB
:1044FC00002834DD0020F8BD04F12C0500212846ED
:10450C0003F048F900282ADD0021284602F0A8FF14
:10451C0028B304F138050021284603F03BF90028A4
:10452C001DDD0021284602F09BFFC0B1002104F1E3
:10453C00140003F02FF9002811DD002104F14400D0
:10454C0003F028F900280ADD002104F1500003F0E3
:10455C0021F9002803DD002104F15C00C6E70148C5
:10456C00C9E700BF80BFFFFF70B500210446FFF70D
:10457C009FFF054610B10E4D284670BD04F108068C
:10458C00304602F07DFF7F28F5D9143429462046A9
:10459C0002F066FF0028EED0204602F071FF0128E1
:1045AC00E9D93146204603F0B4F80028E4DBE2E711
:1045BC0000BEFFFFF0B50C4687B00021054616463D
:1045CC00FFF776FF002839D103A802F09FFE2146A1
:1045DC006A6803A802F079FF044618B103A802F038
:1045EC009BFE0CE005F10804214603A803F091F8AA
:1045FC00002807DB03A802F08FFE6FF00304A4F57C
:10460C00854418E005F1680303A96F68009305F170
:10461C0014022346084603F0D7FB04460028DDD1DC
:10462C003A46314603A802F071FF044603A802F093
:10463C0073FE002CE3D1204607B0F0BD004CFAE726
:10464C0080BFFFFF234A2DE9F041B1F1000818BFEC
:10465C009646214A2149224F224E234D234C18BF06
:10466C00944602F1794208BF8E4602F57402204945
:10467C0002F5016208BF8C461E4918BF11461E4A3E
:10468C0018BF17461D4A18BF164602F1D14202F553
:10469C00C01202F51E6218BF1546194A034618BF10
:1046AC0014461848C3F86880A2F11162A2F50C22D6
:1046BC00A2F28E2218BF02460020C3E90000C3E913
:1046CC0002ECC3E90417C3E90665C3E90842BDE877
:1046DC00F08100BFD89E05C107D57C3667E6096A14
:1046EC003AF54FA57F520E518C68059BABD9831FB1
:1046FC0085AE67BB72F36E3C39590EF7310BC0FFB8
:10470C00A78FF964A44FFABE2DE9F04FD1B0031D69
:10471C00019300F124030DF58E7B0393019B5A4604
:10472C0053F8040F42F8040F03989842F8D14F9BAA
:10473C0002934CADDDE94AE395E82011DDE9480729
:10474C000493424B059306AA4FF00009B9F10F0FE1
:10475C0063D84C780B78240444EA0364CB78234365
:10476C008C7843EA04234FEAF52A8CEA0804059E68
:10477C0093608AEAB51A2C408AEA756A84EA0C04BA
:10478C00544456F804AB059654442344029CCDF88B
:10479C0008C023444FEA703A40EA07048AEAB00A98
:1047AC0004EA0E0400EA07068AEAB05A3443544479
:1047BC0009F10109DDF810A0CDF810E0B9F1400FB6
:1047CC009A4402F10402234401F104011ED1CDE903
:1047DC000634CDE94E8CCDE94CA5CDE94A7ECDE928
:1047EC004830019A52F8043F01925BF8042F1344AD
:1047FC00019A1360039B9342F3D106A84FF4947172
:10480C00FFF74CFE002051B0BDE8F08FBE46C44609
:10481C000746A8461846554698E7136852F8384C90
:10482C0052F8346C4FEAF34A8AEA734A8AEA932ABA
:10483C0052F8143C234452F8344C4FEAB44484EA02
:10484C00F614534484EAD60423448CE7F48900001C
:10485C004FF0704393F8E02F062A09D1D3F8E83FC4
:10486C00C3F30313033B042B02D8024AD05C7047FA
:10487C000020704764990000024AD2F80034002BE3
:10488C00FBD0704700E0014010B503F052FE40B180
:10489C004FF08053904AD3F82433C3F30423C2F867
:1048AC004035FFF7D5FF10B18C4B8D4A5A6703F09A
:1048BC0040FE48B14FF080534FF08042D3F8443261
:1048CC00C3F34233C2F83C35FFF7C2FF30B1854A1F
:1048DC00D2F8FC3023F08073C2F8FC3003F029FED0
:1048EC0040B14FF080430022C3F80C21C3F81021D3
:1048FC00C3F83825FFF7ACFF20B14FF080430322FB
:10490C00C3F8A025FFF7A4FF60B1774B0522C3F8CD
:10491C0010260122C3F888260022C3F818263F224D
:10492C00C3F814264FF08053D3F83021511C09BF23
:10493C004FF07043D3F8343193F8E02FD3F8E83FBD
:10494C0008BFC3F30313062A4DD1033B042B03D832
:10495C00664AD35C002B46D04FF08052644BD2F8A1
:10496C000414C3F82015D2F80814C3F82415D2F88F
:10497C000C14C3F82815D2F81014C3F82C15D2F85F
:10498C001414C3F83015D2F81814C3F83415D2F82F
:10499C001C14C3F84015D2F82014C3F84415D2F8EF
:1049AC002414C3F84815D2F82814C3F84C15D2F8BF
:1049BC002C14C3F85015D2F83014C3F85415D2F88F
:1049CC003414C3F86015D2F83814C3F86415D2F84F
:1049DC003C14C3F86815D2F84014C3F86C15D2F81F
:1049EC004424C3F8702503F0A4FD48B14FF0805364
:1049FC004FF08042D3F8583203F04F03C2F8E43E34
:104A0C0003F097FD48B14FF08043D3F80024D20750
:104A1C0044BF6FF00102C3F800244FF08053D3F869
:104A2C003021062A26D1D3F83431033B042B02D88B
:104A3C00304AD35C63B1304AD2F83C3743F48063DC
:104A4C00C2F83C374FF08053D3F83031062B11D1DC
:104A5C004FF08053D3F83431033B042B02D8274A50
:104A6C00D35C3BB14FF01023D3F808224FF08043B6
:104A7C00C3F858254FF01023D3F80022002A03DB8B
:104A8C00D3F80432002B22DA1D4901234FF01020F9
:104A9C00C1F804351524FFF7EFFEC0F80042FFF70C
:104AAC00EBFEC0F80442FFF7E7FE0023C1F8043523
:104ABC00FFF7E2FEBFF34F8F0A49124BCA6802F4AC
:104ACC00E0621343CB60BFF34F8F00BFFDE70E4B8B
:104ADC000E4A1A6010BD00BF0030014000C00740F4
:104AEC000DF0ADBA00ED00E0005000405F99000001
:104AFC0000C000405A990000001000405599000079
:104B0C0000E001400400FA05540000200090D0039E
:104B1C0070B501250268BFF35B8FB2FA82F3C3F163
:104B2C001F03DBB205FA03F422EA040450E8006F19
:104B3C00964204D140E8004CBCF1000FF6D1BFF313
:104B4C005B8FE7D101480B7070BD00BF0000AD0B4F
:104B5C0010B50368CB40DB0714D401238B400268EB
:104B6C00BFF35B8F43EA020150E8004F944204D13B
:104B7C0040E8001CBCF1000FF6D1BFF35B8FEED107
:104B8C00014810BD0148FCE70000AD0B0400AD0B63
:104B9C00F7B5044618B1012822D003B0F0BD4FF090
:104BAC0080430222C3F80823C3F80401D3F804217C
:104BBC000122DA60074601238DF8073042F21075A6
:104BCC004FF08046CCB1012CE7D1C7B3D6F80C34EA
:104BDC0003F001033B70D6F80C34DA0321D516E050
:104BEC004FF080430022C3F80803C3F80021D3F828
:104BFC00002158600DF10707DDE7B7B1D6F818347E
:104C0C0003F003033B60D6F81834D803C5D59DF8E0
:104C1C000700012803D103F09BFC013DD2D1012CEC
:104C2C00BBD10C4B00225A71B7E7D6F81834D90314
:104C3C00B3D5012003F08CFC013DF6D1ADE7D6F8DD
:104C4C000C34DB03EDD5012003F082FC013DF6D1E1
:104C5C00E7E700BFEC120020044B1A7922B90122BD
:104C6C0018609A800248704702487047EC12002086
:104C7C000000AD0B0C00AD0B38B510B1012843D0C2
:104C8C0038BD4FF08042D2F81834D2F81814C8034B
:104C9C000BD4D2F81434D9070FD5D2F81C349B0797
:104CAC0008D40223C2F80433EAE703F00303012B10
:104CBC0004D013B10020FFF76BFF00234FF08042AC
:104CCC00C2F818350023C2F80431D2F8043102239B
:104CDC00C2F80433124AD2F8FC0040F08073C2F8D8
:104CEC00FC30104B1C6844F0010119605D68596878
:104CFC00491BB1F50A5FFAD31C604FF08043C2F830
:104D0C00FC0001229A60BBE74FF080430022C3F8FD
:104D1C000021D3F80021C3F804031860B0E700BFEA
:104D2C0000ED00E0001000E010B54FF08043D3F828
:104D3C0000216AB10022C3F80021D3F8002101221E
:104D4C00C3F80823114B587910B95A711B6898474E
:104D5C004FF08043D3F8042172B10022C3F8042130
:104D6C00D3F80421D3F81824D3F81814920704D1DB
:104D7C000122C3F818259A6010BD0222C3F808233B
:104D8C00024BBDE810401B6801201847EC120020B4
:104D9C00034B083033F81000C0F34010704700BFCD
:104DAC005800002070B500F108030C4C34F8133097
:104DBC00DA0505460E4607D5C3F3432304EBC302BD
:104DCC0054F8333052689847A3682BB1E2683146E7
:104DDC002846BDE87040184770BD00BF5800002041
:104DEC0010B4124A083032F81030D9051BD5C3F371
:104DFC00432123F4F85322F8103002F10E04002062
:104E0C0034F8023F13F4807F03D0C3F34323994259
:104E1C0009D001302028F3D1002342F83130044866
:104E2C0010BCFFF795BE10BC704700BF58000020A7
:104E3C00AC00002038B50246FFF7AAFF094C02F17E
:104E4C00080540B134F8153007495B0B03F5A27324
:104E5C00002041F823001046FFF7C2FF002324F87E
:104E6C00153038BD58000020006000402DE9F3419A
:104E7C0004461D4609B34F4F00F1080837F8186077
:104E8C00B30706D5FFF784FF18B14B4802B0BDE855
:104E9C00F08104F01F039B0003F1A0430978D3F8C1
:104EAC00000726F0020620F00F0046F0010640EA4B
:104EBC00810127F81860C3F800179AB13D4B177899
:104ECC00506804F1080633F8161011F0020F0DD0DB
:104EDC000028DAD133F8162022F01C0242EA8702AD
:104EEC0023F81620002D3BD13448CFE721F02001C8
:104EFC00C904C90C23F816100028EBD0032FC4D812
:104F0C00526892F800C02FB92D4A0CF5A27C42F8D9
:104F1C002C70DFE74FEA8C0202F1804202F5C042AE
:104F2C0041EA4C31D2F8100520F00300C2F810050C
:104F3C00D2F8100520F4473020F44070C2F8100568
:104F4C002002D2F810E500F4F85040EA074040EA9D
:104F5C000E0041F0200123F81610C2F81005B9E735
:104F6C00D5E900672046FFF73BFF002EBCD0114D62
:104F7C00D5E90023964201D19F4219D011480DF179
:104F8C000701FFF7C5FD0D4B98427FF47FAF9DF8ED
:104F9C00072045F8326005EBC20308345F6035F832
:104FAC00143043EA422343F4807325F814309BE712
:104FBC000022EEE7580000200400AD0B0000AD0B02
:104FCC0000600040AC000020F8B5044689B33A4EAE
:104FDC0000F1080736F81750AB0704D4FFF7D8FEDA
:104FEC0008B13648F8BD15F01C0F4B7824D104F0ED
:104FFC001F0000F5E07E4FF0A04C5B005CF82EC06B
:10500C0091F802E009782CF4E16C43EA8E032CF061
:10501C00070C43EA0C0343EA012300F5E0704FF060
:10502C00A04143F0010345F0030541F8203026F878
:10503C00175022B92248D5E7012BD8D1D1E71E4E03
:10504C0004F1080736F817008307CAD592F800C098
:10505C006146890020F0200001F18041C00401F577
:10506C00C041C00C26F817000023C1F81035557844
:10507C00002DDFD0D1F81035927823F4981323F457
:10508C00F853C1F81035D1F810E5230203F4F853A6
:10509C002D0443EA0E0305F4403512052B4302F4AC
:1050AC00801240EA4C30134340F0200026F81700E1
:1050BC00C1F81035BEE700BF580000200400AD0B4E
:1050CC000000AD0B014BC3E90201704758000020F2
:1050DC0008B50246FFF75CFE38B1054B05480832AF
:1050EC0033F812305B0B0B7008BD0348FCE700BFB4
:1050FC00580000200000AD0B0400AD0B38B50F4C70
:10510C0094F85850BDB94022294604F1100001F022
:10511C0033FA0620FDF712FC094B0A48C3F87C5100
:10512C00D3F87C214FF00042C3F80423012384F808
:10513C005830636538BD0448FCE700BF58000020B8
:10514C00006000400000AD0B0500AD0B034B93F865
:10515C005800003818BF0120704700BF58000020CD
:10516C0001460148FFF7F4BCA800002001460148A5
:10517C00FFF7CEBCA800002010B50246FFF708FED2
:10518C0002F108041C4B33F81430E0B113F00204A4
:10519C0019D15B0B9A0002F1804000F5C24002F17C
:1051AC00804202F5C04204600068D2F8100540F05D
:1051BC000100C2F8100529B1012202FA03F30F4ACB
:1051CC00C2F8043310BDC3F38203042B10D0052B9B
:1051DC0010D04FF0A043D3F8101502F01F03D940A4
:1051EC0001F001010231BDE81040104603F0C1B9D5
:1051FC000321F8E70221F6E7580000200060004088
:10520C0008B50246FFF7C4FDC0B102F108010E4B10
:10521C0033F81130990711D45B0B01229A409B0093
:10522C000A4903F1804303F5C043C1F80823D3F8BE
:10523C00102522F00302C3F8102508BDBDE8084074
:10524C000021104603F095B9580000200060004082
:10525C0010B50D4B00F10802044633F81230DB0791
:10526C000FD5FFF7CDFF204604F01F04FFF7E2FD3A
:10527C0004F5E0744FF0A043022243F824200348C5
:10528C0010BD0348FCE700BF580000200000AD0B28
:10529C000400AD0B2DE9F74F4F4B504850490025FA
:1052AC0001222C461E6836B1D0F8046316421EBF8C
:1052BC001C601E68154304338B424FEA4202F1D145
:1052CC00464BD3F87C31BBB14FF0A046D6F8203515
:1052DC000193C6F8203501AF4FF00108019C8CB941
:1052EC003E4BC3F87C41D3F87C31D6F82035019382
:1052FC00C6F82035002BEED10124002D53D103B07C
:10530C00BDE8F08F94FAA4F4B4FA84F4354A04F1AD
:10531C000803E00832F813103B5C04F0070208FAAB
:10532C0002F223EA02033B54A30003F1A049C1F3A8
:10533C00820AD9F80027CB06D346C2F3014218D50E
:10534C00594620465FFA82FAFFF72CFDD9F8003750
:10535C00C3F301439A4507D10021204603F009F914
:10536C005146204603F005F908FA04F4C6F8204526
:10537C00B4E7022A0CD10321204603F0FAF80AF014
:10538C000503012BF0D159462046FFF70BFDEBE747
:10539C000221204603F0EDF8BAF1030FF3D0032AF3
:1053AC00E2D18A45EEE795FAA5F3B3FA83F304FA52
:1053BC0003F29B0003F1804303F5C04325EA020589
:1053CC00D3F81005D3F81015C0F30420C1F3014134
:1053DC00FFF7E8FC91E700BF00610040006000406F
:1053EC002061004058000020044AD2F80034DB074A
:1053FC00FBD50160BFF35F8F704700BF00E0014039
:10540C004FF080531A69B0FBF2F302FB130373B92C
:10541C00084B0222C3F80425C3F80805D3F800246E
:10542C00D207FBD500220448C3F804257047034873
:10543C00704700BF00E001400000AD0B0A00AD0B4F
:10544C0010B5054C0123C4F80435FFF7CDFF00233C
:10545C00C4F8043510BD00BF00E00140014601480E
:10546C00FFF756BBB400002073B504460D464FF051
:10547C002003EFF3118683F31288BFF36F8F042898
:10548C0096BF124B124B53F820300022009245214C
:10549C000246104800F0FAFC3DB1EB69C3F3080377
:1054AC001BB10D48452100F0F1FC0C4B0C480022BF
:1054BC00452100F0EBFC29462046FEF755FD86F30E
:1054CC001188BFF36F8F02B070BD00BFF48A00006B
:1054DC006999000077990000A4990000CA9900000E
:1054EC00D29900000F4B70B553F82040013053F89F
:1054FC002060A64200D870BDD4E9003528469847F4
:10550C006DB138B10028B8BF4042EB68FF28A8BF86
:10551C00FF201870EA68537843F001035370083485
:10552C00E7E700BF088B000008B5094B01220320F8
:10553C001A70FFF7D7FF00F013F90420FFF7D2FF22
:10554C00FAF74EFF034A137B23F00103137308BDD4
:10555C00A1340020E800002008B50348034A0021CC
:10556C00121A03F02EF808BDC8000020A434002045
:10557C0008B50020FFF7B6FF184B83F30888184CCA
:10558C00636943F4007363610025E02384F82230DF
:10559C00E57725766576A57684F82050636A43F422
:1055AC00E023636284F82350FDF762FCFDF77AF97F
:1055BC004FF0FF33A362E362FDF762FDFDF7E4FCFD
:1055CC0002F0F3FF0120FFF78DFF0220FFF78AFFA7
:1055DC0004482B462A462946FDF72AFA003D0020AE
:1055EC0000ED00E03555000008B50648064A0749AD
:1055FC00121A02F0E8FFBDE80840054A05490648C2
:10560C0002F0E1BF00000020C80000206C9A0000EE
:10561C00000000006C9A000000000020034B1B6887
:10562C000BB9FEF797BC0020704700BFF4120020A6
:10563C0010B50E4B1C689C4204D1FFF7EFFF6FF0C6
:10564C00004010BDFFF7EAFF002CF8D0D4E904327B
:10565C001B1A62EBE072B3F1004F72F10001EEDA4B
:10566C00002AACBF18460020EBE700BFB8000020B2
:10567C0030B570B10B4B5B6898420AD0036843B1EC
:10568C00D3E90421D0E90445121941EB0501C3E922
:10569C000421D0E9003213605A600023C0E90033C2
:1056AC0030BD00BFB80000202DE9F84303464FF091
:1056BC002002EFF3118482F31288BFF36F8F254F12
:1056CC00DFF89490D9F80000DFF890C03B604845B3
:1056DC00DCE9001E4FEAE3750CD058B1D0E9048622
:1056EC00434575EB060217DAB8EB030266EB0506C9
:1056FC00C0E9042659184EEB0505CCE90015002528
:10570C003D60FFF795FF2946FEF7F2FB84F3118805
:10571C00BFF36F8FBDE8F88318EB01014EEBE87314
:10572C00CCE9001300220023C0E90423FFF7A0FFFB
:10573C0084F31188BFF36F8F836898474FF0200371
:10574C00EFF3118483F31288BFF36F8F3B68A3EBE5
:10575C000803B7E7F4120020B8000020680100200D
:10576C00014800F0ACBA00BF3C9A0000012303FAD8
:10577C0001F103691B68194218BF82F0010212B1D2
:10578C008368DB68184783681B69FBE770B40346C2
:10579C000C46DA88006819792243056986682B68FB
:1057AC0001248C4012F0010F14BF2343A3432B6040
:1057BC00336870BC184729B101290CBF02206FF067
:1057CC001500704701207047002070472DE9F74302
:1057DC000E4617469946044628B94FF0FF38404606
:1057EC0003B0BDE8F0830029F7D0002AF5D0CB68D0
:1057FC000D891D4404230DEB03022946384600F0A5
:10580C0053FB80460028E8D1BDF80410738946F696
:10581C000812914225D1BDF806109942DDD104231E
:10582C000DEB03022944384600F03EFB0028D4D18E
:10583C00BDF8042046F607139A42CED1C4E900679E
:10584C009DF82830A4F80890A3727389BDF806203F
:10585C002B44E360738913442B4404356361256145
:10586C00BDE7002BE4D0B8E72DE9F3410E4617460F
:10587C001D46044620B94FF0FF3002B0BDE8F08160
:10588C000368002BF7D04368002BF4D04FF6FF7859
:10589C00D4E904239A4216D223685B8923B1E368C6
:1058AC00934204BF043323610423216960680DEB28
:1058BC00030200F0F9FA0028DDD1A37A2BB1D4E968
:1058CC0003329A4201D30120D7E72389BDF8061091
:1058DC00434501F1040203D0BDF804C09C450BD133
:1058EC0015B1BDF804302B80236904333360398043
:1058FC00236913442361C0E7236913442361C7E779
:10590C0000F008BE4FF4C0735843303070470B782A
:10591C00013B012B94BF4FF4C0704FF0FF30704728
:10592C0010B5044600F0FEFAA3684FF4C072303B89
:10593C0002FB103010BD8168183921F007010122DB
:10594C00083901F0FDB913B50446019101F089F94C
:10595C000423A0F108010DEB0302204601F0C4F969
:10596C0002B010BD70B513460E4615460021024616
:10597C000446FBF75BFA50B92B4604F12C020121CB
:10598C002046FBF753FA10B1002E08BF002070BD63
:10599C0073B5044600200D461646FFF70CFF69460A
:1059AC00C0B2FCF78DF930BB2C2303FB05440098E7
:1059BC00E36825891D4404230DEB0302294600F0FE
:1059CC0073FAC0B9BDF804206489009846F6081330
:1059DC009A4215D1BDF806309C420CD104230DEB34
:1059EC000302611900F060FA28B9BDF8042046F6EC
:1059FC0007139A4207D0009800F055FA02B070BD18
:105A0C00002CF2D0F7E7BDF8061021442944316090
:105A1C00F1E737B50446426A802501A901200195BA
:105A2C00FCF776F958B9019B226DA36201A90220FB
:105A3C000195FCF76DF9054628B1092500E0012513
:105A4C00284603B030BD019B206A636500F06AFAFA
:105A5C00E065F5E70123036003F1012343600023B4
:105A6C00C0E9023370474379012B07D10368012B3E
:105A7C0004D10079431E58425841704700207047AA
:105A8C007FB506460D46012001A9FCF719F938BB74
:105A9C000198FFF745FFF16D0446284600F0E6F843
:105AAC000444019800F03EFA0646019800F041FAD1
:105ABC00082201460DEB020000F05EFD2B798DF8FB
:105ACC00083021460198334602AA00F002FA041E5F
